:100000001FC02EC02DC02CC02BC02AC029C028C0A4
:1000100027C026C025C024C023C022C021C020C0C4
:100020001FC06F776E20636F756E747279004B65B9
:100030007261726C61203A204B6572616C610000E4
:1000400011241FBECFE5D1E0DEBFCDBF20E0A0E68A
:10005000B0E001C01D92A236B207E1F792D0BDC058
:10006000CFCFDD9A87FF02C0D89A01C0D89886FF0B
:1000700002C0D99A01C0D99885FF02C0DA9A01C09E
:10008000DA9884FF02C0DB9A01C0DB9896E09A956B
:10009000F1F700C0DC9AE6E0EA95F1F700C0DC98E1
:1000A000EFE4F3EC3197F1F700C0000083FF02C0EA
:1000B000D89A01C0D89882FF02C0D99A01C0D998B5
:1000C00081FF02C0DA9A01C0DA9880FF02C0DB9A91
:1000D00001C0DB98F6E0FA95F1F700C0DC9A86E003
:1000E0008A95F1F700C0DC98EFE4F3EC3197F1F773
:1000F00000C000000895DD988BBB86E08A95F1F77B
:1001000000C0DC9A96E09A95F1F700C0DC988FE485
:1001100093EC0197F1F700C000000895CF93DF93AF
:10012000EC011092610080916100FE01E80FF11D69
:10013000849180936000882339F093DF909161006F
:100140009F5F90936100EFCFDF91CF9108958FE48F
:1001500093EC0197F1F700C000008CE0CCDF8CE05D
:10016000CADF8CE0C8DF84E0C6DF84E0C4DF81E062
:10017000C2DF80E0C0DF87E0BEDF80E0BCDF86E07A
:10018000BACF80E886BD16BCD898D09AD998D19AB3
:10019000DA98D29ADB98D39ADC98D49ADD98D59ADB
:1001A000D6DF80E0A8DF84E0A6DF8EE290E0B6DF55
:1001B00083E0A1DF80E09FDF82E290E0AFDF2FEFFE
:1001C00088E09DE3215080409040E1F700C00000AE
:0E01D00080E091DF88E08FDFE4CFF894FFCF6E
:00000001FF
